{
  "contractName": "HelloWorld",
  "abi": [
    {
      "inputs": [
        {
          "internalType": "string",
          "name": "_message",
          "type": "string"
        }
      ],
      "stateMutability": "nonpayable",
      "type": "constructor"
    },
    {
      "inputs": [],
      "name": "message",
      "outputs": [
        {
          "internalType": "string",
          "name": "",
          "type": "string"
        }
      ],
      "stateMutability": "view",
      "type": "function"
    },
    {
      "inputs": [],
      "name": "hello",
      "outputs": [
        {
          "internalType": "string",
          "name": "",
          "type": "string"
        }
      ],
      "stateMutability": "view",
      "type": "function"
    },
    {
      "inputs": [
        {
          "internalType": "string",
          "name": "_message",
          "type": "string"
        }
      ],
      "name": "setMessage",
      "outputs": [],
      "stateMutability": "payable",
      "type": "function"
    }
  ],
  "bytecode": "0x60806040523480156200001157600080fd5b50604051620008eb380380620008eb8339818101604052810190620000379190620002a4565b80600090805190602001906200004f92919062000057565b50506200035a565b828054620000659062000324565b90600052602060002090601f016020900481019282620000895760008555620000d5565b82601f10620000a457805160ff1916838001178555620000d5565b82800160010185558215620000d5579182015b82811115620000d4578251825591602001919060010190620000b7565b5b509050620000e49190620000e8565b5090565b5b8082111562000103576000816000905550600101620000e9565b5090565b6000604051905090565b600080fd5b600080fd5b600080fd5b600080fd5b6000601f19601f8301169050919050565b7f4e487b7100000000000000000000000000000000000000000000000000000000600052604160045260246000fd5b620001708262000125565b810181811067ffffffffffffffff8211171562000192576200019162000136565b5b80604052505050565b6000620001a762000107565b9050620001b5828262000165565b919050565b600067ffffffffffffffff821115620001d857620001d762000136565b5b620001e38262000125565b9050602081019050919050565b60005b8381101562000210578082015181840152602081019050620001f3565b8381111562000220576000848401525b50505050565b60006200023d6200023784620001ba565b6200019b565b9050828152602081018484840111156200025c576200025b62000120565b5b62000269848285620001f0565b509392505050565b600082601f8301126200028957620002886200011b565b5b81516200029b84826020860162000226565b91505092915050565b600060208284031215620002bd57620002bc62000111565b5b600082015167ffffffffffffffff811115620002de57620002dd62000116565b5b620002ec8482850162000271565b91505092915050565b7f4e487b7100000000000000000000000000000000000000000000000000000000600052602260045260246000fd5b600060028204905060018216806200033d57607f821691505b60208210811415620003545762000353620002f5565b5b50919050565b610581806200036a6000396000f3fe6080604052600436106100345760003560e01c806319ff1d2114610039578063368b877214610064578063e21f37ce14610080575b600080fd5b34801561004557600080fd5b5061004e6100ab565b60405161005b9190610336565b60405180910390f35b61007e600480360381019061007991906104a1565b61013d565b005b34801561008c57600080fd5b5061009561016c565b6040516100a29190610336565b60405180910390f35b6060600080546100ba90610519565b80601f01602080910402602001604051908101604052809291908181526020018280546100e690610519565b80156101335780601f1061010857610100808354040283529160200191610133565b820191906000526020600020905b81548152906001019060200180831161011657829003601f168201915b5050505050905090565b670de0b6b3a764000034101561015257600080fd5b80600090805190602001906101689291906101fa565b5050565b6000805461017990610519565b80601f01602080910402602001604051908101604052809291908181526020018280546101a590610519565b80156101f25780601f106101c7576101008083540402835291602001916101f2565b820191906000526020600020905b8154815290600101906020018083116101d557829003601f168201915b505050505081565b82805461020690610519565b90600052602060002090601f016020900481019282610228576000855561026f565b82601f1061024157805160ff191683800117855561026f565b8280016001018555821561026f579182015b8281111561026e578251825591602001919060010190610253565b5b50905061027c9190610280565b5090565b5b80821115610299576000816000905550600101610281565b5090565b600081519050919050565b600082825260208201905092915050565b60005b838110156102d75780820151818401526020810190506102bc565b838111156102e6576000848401525b50505050565b6000601f19601f8301169050919050565b60006103088261029d565b61031281856102a8565b93506103228185602086016102b9565b61032b816102ec565b840191505092915050565b6000602082019050818103600083015261035081846102fd565b905092915050565b6000604051905090565b600080fd5b600080fd5b600080fd5b600080fd5b7f4e487b7100000000000000000000000000000000000000000000000000000000600052604160045260246000fd5b6103ae826102ec565b810181811067ffffffffffffffff821117156103cd576103cc610376565b5b80604052505050565b60006103e0610358565b90506103ec82826103a5565b919050565b600067ffffffffffffffff82111561040c5761040b610376565b5b610415826102ec565b9050602081019050919050565b82818337600083830152505050565b600061044461043f846103f1565b6103d6565b9050828152602081018484840111156104605761045f610371565b5b61046b848285610422565b509392505050565b600082601f8301126104885761048761036c565b5b8135610498848260208601610431565b91505092915050565b6000602082840312156104b7576104b6610362565b5b600082013567ffffffffffffffff8111156104d5576104d4610367565b5b6104e184828501610473565b91505092915050565b7f4e487b7100000000000000000000000000000000000000000000000000000000600052602260045260246000fd5b6000600282049050600182168061053157607f821691505b60208210811415610545576105446104ea565b5b5091905056fea26469706673582212201c9b0a6b64114d3b653fed0f8aa53951ad3808b511d0e75e6eef1276afa93b2f64736f6c634300080b0033",
  "immutableReferences": {},
  "source": "// SPDX-License-Identifier: MIT\n\npragma solidity ^0.8.0;\n\ncontract HelloWorld {\n    string public message;\n\n    constructor(string memory _message) {\n        message = _message;\n    }\n\n    function hello() public view returns (string memory) {\n        return message;\n    }\n\n    function setMessage(string memory _message) public payable {\n        require(msg.value >= 1 ether);\n        message = _message;\n    }\n}\n",
  "sourcePath": "/home/andrei/solidity/upgradeble-defi-truffle/contracts/HelloWorld.sol",
  "compiler": {
    "name": "solc",
    "version": "0.8.11+commit.d7f03943.Emscripten.clang"
  },
  "schemaVersion": "3.4.4",
  "updatedAt": "2022-01-14T00:06:15.093Z",
  "devdoc": {
    "kind": "dev",
    "methods": {},
    "version": 1
  },
  "userdoc": {
    "kind": "user",
    "methods": {},
    "version": 1
  }
}